:10000000609F002035510000099B0100ED50000069
:10001000ED500000ED500000ED5000000000000029
:10002000000000000000000000000000694D00001A
:10003000ED50000000000000114D0000ED500000E8
:10004000494E000085C60100494E0000494E00009F
:10005000494E0000494E0000494E0000494E000044
:10006000494E0000494E0000494E0000494E000034
:10007000494E0000494E0000494E0000494E000024
:10008000494E0000494E0000494E0000494E000014
:10009000494E0000494E0000494E0000494E000004
:1000A000494E0000494E0000494E0000494E0000F4
:1000B000494E0000494E0000494E0000494E0000E4
:1000C000494E0000494E0000494E0000494E0000D4
:1000D000494E0000494E0000494E0000494E0000C4
:1000E000494E0000494E0000494E0000494E0000B4
:1000F000494E0000494E0000494E0000494E0000A4
:1001000090F800F06DE9024520F007016FF0000C57
:1001100010F0070491F820F040F049804FF00004FF
:100120006FF00700D1E9002391F840F000F10800DA
:1001300082FA4CF2A4FA8CF283FA4CF3A2FA8CF312
:100140004BBBD1E9022382FA4CF200F10800A4FA79
:100150008CF283FA4CF3A2FA8CF3E3B9D1E90423CD
:1001600082FA4CF200F10800A4FA8CF283FA4CF304
:10017000A2FA8CF37BB9D1E9062301F1200182FABE
:100180004CF200F10800A4FA8CF283FA4CF3A2FAC4
:100190008CF3002BC6D0002A04BF04301A4612BAD2
:1001A000B2FA82F2FDE8024500EBD2007047D1E9D5
:1001B000002304F00305C4F100004FEAC50514F064
:1001C000040F91F840F00CFA05F562EA05021CBF35
:1001D00063EA050362464FF00004A9E7000000004F
:1001E000A2EB0300704700BF02780B78012A28BFFA
:1001F0009A42F5D16DE9044540EA0104CDE9026770
:100200006FF0000C4FEA447212B380EA010414F05C
:10021000070F6AD100F0070420F0070004F003057F
:1002200021F007014FEAC505F0E8042314F0040F9C
:10023000F1E804670CFA05F462EA040266EA0406CF
:100240000AD063EA0403624667EA0407664603E0ED
:10025000F0E80423F1E8046782FA4CF582EA060428
:10026000A4FA8CF46CBB83FA4CF583EA0705A5FA73
:100270008CF595B950E9022351E9026782FA4CF5F1
:1002800082EA0604A4FA8CF483FA4CF583EA0705A3
:10029000A5FA8CF52543DBD09CB92DBAB5FA85F4C7
:1002A00024F0070427FA04F1DDE9026723FA04F3D6
:1002B00003F0FF0001F0FF01FDE80445A0EB0100A1
:1002C000704724BAB4FA84F424F0070426FA04F13F
:1002D000DDE9026722FA04F202F0FF0001F0FF01FB
:1002E000FDE80445A0EB0100704714F0030F3CD17A
:1002F00010F0030428D150F8082B51F8083B82FA7B
:100300004CF582EA0305A5FA8CF55DB950F8042C8A
:1003100051F8043C82FA4CF582EA0305A5FA8CF503
:10032000002DE8D02DBAB5FA85F424F0070423FA9D
:1003300004F122FA04F202F0FF0001F0FF01FDE8EF
:100340000445A0EB010070474FEAC40420F003000D
:1003500050F8082B21F0030151F8083B0CFA04F483
:1003600062EA040263EA0403C9E710F003041AD046
:10037000A1EB040120F00300E40750F8042B06D0A1
:100380000FD28B785FFAA2F4E41A06D12BB1CB78A6
:100390005FFAB2F4E41A00D11BB920465DF8104BA5
:1003A000704701F1040150F8042BCC0721F0030140
:1003B00051F8043B48D824D222F07F4482FA4CF50D
:1003C00094EA1325A5FA8CF50AD165B951F8043BD6
:1003D00084EA0204B4EB036F0ED150F8042BEBE770
:1003E0004FEA132355E035F07F454DD10878FDE8FD
:1003F0000445C0F1000070474FEA126203F0FF03AA
:1004000047E002EA1C4482FA4CF594EA1345A5FA47
:100410008CF50AD165B951F8043B84EA0204B4EBC7
:10042000034F0CD150F8042BEBE74FEA134330E0B5
:1004300015EA1C4528D10B884FEA124229E04FEA01
:10044000124203EA1C4324E002F0FF0482FA4CF556
:1004500094EA1365A5FA8CF50AD165B951F8043B05
:1004600084EA0204B4EB032F09D150F8042BEBE724
:100470004FEA13630DE015F0FF0F05D10B684FEA4B
:10048000122223F07F4304E04FF00000FDE8044512
:10049000704712BA1BBA82FA4CF482EA0304A4FA37
:1004A0008CF5B5FA85F402FA04F203FA04F34FEA84
:1004B0001260FDE80445A0EB1360704700000000E7
:1004C00001F0FF01102A2BDB10F0070F08D010F805
:1004D000013B013A8B422DD010F0070F42B3F6D109
:1004E000F0B441EA012141EA014122F007047FF022
:1004F00000070023F0E80256083C85EA010586EA79
:10050000010685FA47F5A3FA87F586FA47F6A5FAB4
:1005100087F68EB9EED1F0BC01F0FF0102F00702C0
:1005200032B110F8013B013A83EA010313B1F8D16B
:100530000020704701387047002D06BF354603384C
:10054000073815F0010F07D1013015F4807F02BF85
:10055000013015F4C03F0130F0BC0138704700BFD6
:1005600081F0004102E000BF83F0004330B54FEA64
:1005700041044FEA430594EA050F08BF90EA020FD1
:100580001FBF54EA000C55EA020C7FEA645C7FEA64
:10059000655C00F0E2804FEA5454D4EB5555B8BF87
:1005A0006D420CDD2C4480EA020281EA030382EAF8
:1005B000000083EA010180EA020281EA0303362D8A
:1005C00088BF30BD11F0004F4FEA01314FF4801C5D
:1005D0004CEA113102D0404261EB410113F0004F6F
:1005E0004FEA03334CEA133302D0524263EB430326
:1005F00094EA050F00F0A780A4F10104D5F1200EC4
:100600000DDB02FA0EFC22FA05F2801841F100011E
:1006100003FA0EF2801843FA05F359410EE0A5F1F2
:1006200020050EF1200E012A03FA0EFC28BF4CF023
:10063000020C43FA05F3C01851EBE37101F00045D9
:1006400007D54FF0000EDCF1000C7EEB00006EEBE6
:100650000101B1F5801F1BD3B1F5001F0CD3490870
:100660005FEA30004FEA3C0C04F101044FEA4452C7
:1006700012F5800F80F09A80BCF1004F08BF5FEA4E
:10068000500C50F1000041EB045141EA050130BD2E
:100690005FEA4C0C404141EB0101013C28BFB1F540
:1006A000801FE9D291F0000F04BF01460020B1FA8B
:1006B00081F308BF2033A3F10B03B3F120020CDA5E
:1006C0000C3208DD02F1140CC2F10C0201FA0CF03C
:1006D00021FA02F10CE002F11402D8BFC2F1200CA1
:1006E00001FA02F120FA0CFCDCBF41EA0C01904057
:1006F000E41AA2BF01EB0451294330BD6FEA0404A0
:100700001F3C1CDA0C340EDC04F11404C4F120028A
:1007100020FA04F001FA02F340EA030021FA04F39C
:1007200045EA030130BDC4F10C04C4F1200220FAF3
:1007300002F001FA04F340EA0300294630BD21FA31
:1007400004F0294630BD94F0000F83F4801306BFF7
:1007500081F480110134013D4EE77FEA645C18BFEB
:100760007FEA655C29D094EA050F08BF90EA020F82
:1007700005D054EA000C04BF1946104630BD91EA7A
:10078000030F1EBF0021002030BD5FEA545C05D17D
:100790004000494128BF41F0004130BD14F58004BC
:1007A0003CBF01F5801130BD01F0004545F0FE4130
:1007B00041F470014FF0000030BD7FEA645C1ABF65
:1007C000194610467FEA655C1CBF0B46024650EA9C
:1007D000013406BF52EA033591EA030F41F40021C8
:1007E00030BD00BF90F0000F04BF0021704730B54E
:1007F0004FF4806404F132044FF000054FF0000123
:1008000050E700BF90F0000F04BF0021704730B5E3
:100810004FF4806404F1320410F0004548BF4042B8
:100820004FF000013EE700BF42004FEAE2014FEA0D
:1008300031014FEA02701FBF12F07F4393F07F4FE8
:1008400081F06051704732F07F4208BF704793F0EB
:100850007F4F04BF41F40021704730B54FF46074FE
:1008600001F0004521F000411CE700BF50EA010201
:1008700008BF704730B54FF000050AE050EA0102AA
:1008800008BF704730B511F0004502D5404261EB1A
:1008900041014FF4806404F132045FEA915C3FF45B
:1008A000D8AE4FF003025FEADC0C18BF03325FEAF8
:1008B000DC0C18BF033202EBDC02C2F1200300FAA9
:1008C00003FC20FA02F001FA03FE40EA0E0021FACE
:1008D00002F11444BDE600BF70B54FF0FF0C4CF4BC
:1008E000E06C1CEA11541DBF1CEA135594EA0C0F6E
:1008F00095EA0C0F00F0DEF82C4481EA030621EAA9
:100900004C5123EA4C5350EA013518BF52EA0335E3
:1009100041F4801143F4801338D0A0FB02CE4FF095
:100920000005E1FB02E506F00042E0FB03E54FF0C5
:100930000006E1FB03569CF0000F18BF4EF0010EBD
:10094000A4F1FF04B6F5007F64F5407404D25FEAB9
:100950004E0E6D4146EB060642EAC62141EA55516C
:100960004FEAC52040EA5E504FEACE2EB4F1FD0CAE
:1009700088BFBCF5E06F1ED8BEF1004F08BF5FEA2C
:10098000500E50F1000041EB045170BD06F00046DE
:1009900046EA010140EA020081EA0301B4EB5C048B
:1009A000C2BFD4EB0C0541EA045170BD41F4801183
:1009B0004FF0000E013C00F3AB8014F1360FDEBFA8
:1009C000002001F0004170BDC4F10004203C35DA84
:1009D0000C341BDC04F11404C4F1200500FA05F307
:1009E00020FA04F001FA05F240EA020001F00042A8
:1009F00021F0004110EBD37021FA04F642EB06011E
:100A00005EEA430E08BF20EAD37070BDC4F10C0447
:100A1000C4F1200500FA04F320FA05F001FA04F20B
:100A200040EA020001F0004110EBD37041F10001F7
:100A30005EEA430E08BF20EAD37070BDC4F1200502
:100A400000FA05F24EEA020E20FA04F301FA05F26A
:100A500043EA020321FA04F001F0004121FA04F212
:100A600020EA020000EBD3705EEA430E08BF20EAE2
:100A7000D37070BD94F0000F0FD101F0004640001C
:100A800041EB010111F4801F08BF013CF7D041EA9E
:100A9000060195F0000F18BF704703F000465200A2
:100AA00043EB030313F4801F08BF013DF7D043EA73
:100AB0000603704794EA0C0F0CEA135518BF95EA29
:100AC0000C0F0CD050EA410618BF52EA4306D1D1B0
:100AD00081EA030101F000414FF0000070BD50EACF
:100AE000410606BF1046194652EA430619D094EA59
:100AF0000C0F02D150EA013613D195EA0C0F05D143
:100B000052EA03361CBF104619460AD181EA030196
:100B100001F0004141F0FE4141F470014FF000004E
:100B200070BD41F0FE4141F4780170BD70B54FF0E9
:100B3000FF0C4CF4E06C1CEA11541DBF1CEA135569
:100B400094EA0C0F95EA0C0F00F0A7F8A4EB05044B
:100B500081EA030E52EA03354FEA013100F0888042
:100B60004FEA03334FF0805545EA131343EA12630B
:100B70004FEA022245EA111545EA10654FEA0026C0
:100B80000EF000419D4208BF964244F1FD0404F579
:100B9000407402D25B084FEA3202B61A65EB0305D5
:100BA0005B084FEA32024FF480104FF4002CB6EB92
:100BB000020E75EB030E22BFB61A754640EA0C0012
:100BC0005B084FEA3202B6EB020E75EB030E22BF52
:100BD000B61A754640EA5C005B084FEA3202B6EB93
:100BE000020E75EB030E22BFB61A754640EA9C0052
:100BF0005B084FEA3202B6EB020E75EB030E22BF22
:100C0000B61A754640EADC0055EA060E18D04FEADF
:100C1000051545EA16754FEA06164FEAC30343EA7F
:100C200052734FEAC2025FEA1C1CC0D111F4801F4C
:100C30000BD141EA00014FF000004FF0004CB6E745
:100C400011F4801F04BF01430020B4F1FD0C88BFE4
:100C5000BCF5E06F3FF6AFAEB5EB030C04BFB6EBEF
:100C6000020C5FEA500C50F1000041EB045170BDE2
:100C70000EF0004E4EEA113114EB5C04C2BFD4EB0F
:100C80000C0541EA045170BD41F480114FF0000E93
:100C9000013C90E645EA060E8DE60CEA135594EA0F
:100CA0000C0F08BF95EA0C0F3FF43BAF94EA0C0F12
:100CB0000AD150EA01347FF434AF95EA0C0F7FF487
:100CC00025AF104619462CE795EA0C0F06D152EADB
:100CD00003353FF4FDAE1046194622E750EA4106BF
:100CE00018BF52EA43067FF4C5AE50EA41047FF4D0
:100CF0000DAF52EA43057FF4EBAE12E780F00040FF
:100D000002E000BF81F0004142001FBF5FEA4103E3
:100D100092EA030F7FEA226C7FEA236C6AD04FEAE3
:100D20001262D2EB1363C1BFD21841404840414028
:100D3000B8BF5B42192B88BF704710F0004F40F4DA
:100D4000000020F07F4018BF404211F0004F41F4F6
:100D5000000121F07F4118BF494292EA030F3FD0C2
:100D6000A2F1010241FA03FC10EB0C00C3F12003D5
:100D700001FA03F100F0004302D5494260EB400064
:100D8000B0F5000F13D3B0F1807F06D340084FEACF
:100D9000310102F10102FE2A51D2B1F1004F40EBC4
:100DA000C25008BF20F0010040EA0300704749002C
:100DB00040EB0000013A28BFB0F5000FEDD2B0FAC9
:100DC00080FCACF1080CB2EB0C0200FA0CF0AABFEC
:100DD00000EBC25052421843BCBFD040184370478A
:100DE00092F0000F81F4000106BF80F40000013290
:100DF000013BB5E74FEA41037FEA226C18BF7FEA67
:100E0000236C21D092EA030F04D092F0000F08BFA8
:100E10000846704790EA010F1CBF0020704712F08F
:100E20007F4F04D1400028BF40F00040704712F1CE
:100E300000723CBF00F50000704700F0004343F033
:100E4000FE4040F4000070477FEA226216BF084669
:100E50007FEA23630146420206BF5FEA412390EA2C
:100E6000010F40F4800070474FF0000304E000BF22
:100E700010F0004348BF40425FEA000C08BF7047D3
:100E800043F0964301464FF000001CE050EA010297
:100E900008BF70474FF000030AE000BF50EA0102AC
:100EA00008BF704711F0004302D5404261EB410199
:100EB0005FEA010C02BF84460146002043F0B643BE
:100EC00008BFA3F18053A3F50003BCFA8CF2083AE3
:100ED000A3EBC25310DB01FA02FC634400FA02FCEC
:100EE000C2F12002BCF1004F20FA02F243EB0200F3
:100EF00008BF20F00100704702F1200201FA02FC55
:100F0000C2F1200250EA4C0021FA02F243EB020047
:100F100008BF20EADC7070474FF0FF0C1CEAD0528B
:100F20001EBF1CEAD15392EA0C0F93EA0C0F6FD04C
:100F30001A4480EA010C400218BF5FEA41211ED02A
:100F40004FF0006343EA501043EA5111A0FB013116
:100F50000CF00040B1F5000F3EBF490041EAD371EB
:100F60005B0040EA010062F17F02FD2A1DD8B3F167
:100F7000004F40EBC25008BF20F00100704790F0D6
:100F8000000F0CF0004C08BF49024CEA502040EA28
:100F900051207F3AC2BFD2F1FF0340EAC2507047EE
:100FA00040F400004FF00003013A5DDC12F1190F2C
:100FB000DCBF00F000407047C2F10002410021FA9E
:100FC00002F1C2F1200200FA02FC5FEA310040F1B6
:100FD000000053EA4C0308BF20EADC70704792F02F
:100FE000000F00F0004C02BF400010F4000F013A67
:100FF000F9D040EA0C0093F0000F01F0004C02BF62
:10100000490011F4000F013BF9D041EA0C018FE7D0
:101010000CEAD15392EA0C0F18BF93EA0C0F0AD0D6
:1010200030F0004C18BF31F0004CD8D180EA0100FC
:1010300000F00040704790F0000F17BF90F0004F95
:10104000084691F0000F91F0004F14D092EA0C0F77
:1010500001D142020FD193EA0C0F03D14B0218BF0A
:10106000084608D180EA010000F0004040F0FE4050
:1010700040F40000704740F0FE4040F440007047EC
:101080004FF0FF0C1CEAD0521EBF1CEAD15392EA6B
:101090000C0F93EA0C0F69D0A2EB030280EA010C5B
:1010A00049024FEA402037D04FF0805343EA1111F4
:1010B00043EA10130CF000408B4238BF5B0042F152
:1010C0007D024FF4000C8B4224BF5B1A40EA0C00F7
:1010D000B3EB510F24BFA3EB510340EA5C00B3EB29
:1010E000910F24BFA3EB910340EA9C00B3EBD10F17
:1010F00024BFA3EBD10340EADC001B0118BF5FEA69
:101100001C1CE0D1FD2A3FF650AF8B4240EBC25091
:1011100008BF20F0010070470CF0004C4CEA502052
:101120007F32C2BFD2F1FF0340EAC250704740F4A1
:1011300000004FF00003013A37E792F0000F00F093
:10114000004C02BF400010F4000F013AF9D040EA11
:101150000C0093F0000F01F0004C02BF490011F4A5
:10116000000F013BF9D041EA0C0195E70CEAD1539D
:1011700092EA0C0F08D142027FF47DAF93EA0C0F84
:101180007FF470AF084676E793EA0C0F04D14B0268
:101190003FF44CAF08466EE730F0004C18BF31F01A
:1011A000004CCAD130F000427FF45CAF31F0004314
:1011B0007FF43CAF5FE700BF53B94AB9002908BFCD
:1011C00000281CBF4FF0FF314FF0FF3000F00CB88B
:1011D000ADF1080C6DE904CE00F068F9DDF804E02B
:1011E000DDE9022304B07047704700BF4FF0FF3CB9
:1011F00006E000BF4FF0010C02E000BF4FF0010C11
:101200004DF804CD4FEA410C7FEA6C5C4FEA430C89
:1012100018BF7FEA6C5C1BD001B050EA410C0CBFD8
:1012200052EA430C91EA030F02BF90EA020F00203A
:10123000704710F1000F91EA030F58BF994208BFA1
:1012400090422CBFD8176FEAE37040F0010070475E
:101250004FEA410C7FEA6C5C02D150EA013C07D1B5
:101260004FEA430C7FEA6C5CD6D152EA033CD3D000
:101270005DF8040B704700BF8446104662468C46FA
:101280001946634600E000BF01B5FFF7B7FF00282D
:1012900048BF10F1000F01BD4DF808EDFFF7F4FF56
:1012A0000CBF012000205DF808FB00BF4DF808EDE1
:1012B000FFF7EAFF34BF012000205DF808FB00BF04
:1012C0004DF808EDFFF7E0FF94BF012000205DF826
:1012D00008FB00BF4DF808EDFFF7CEFF94BF0120DB
:1012E00000205DF808FB00BF4DF808EDFFF7C4FFD4
:1012F00034BF012000205DF808FB00BF844641EAAE
:10130000000313F003036DD1403A41D351F8043B7D
:1013100040F8043B51F8043B40F8043B51F8043BCF
:1013200040F8043B51F8043B40F8043B51F8043BBF
:1013300040F8043B51F8043B40F8043B51F8043BAF
:1013400040F8043B51F8043B40F8043B51F8043B9F
:1013500040F8043B51F8043B40F8043B51F8043B8F
:1013600040F8043B51F8043B40F8043B51F8043B7F
:1013700040F8043B51F8043B40F8043B51F8043B6F
:1013800040F8043B51F8043B40F8043B403ABDD2DE
:10139000303211D351F8043B40F8043B51F8043B80
:1013A00040F8043B51F8043B40F8043B51F8043B3F
:1013B00040F8043B103AEDD20C3205D351F8043B0F
:1013C00040F8043B043AF9D2043208D0D2071CBFDB
:1013D00011F8013B00F8013B01D30B880380604604
:1013E000704700BF082A13D38B078DD010F003037A
:1013F0008AD0C3F10403D21ADB071CBF11F8013BEA
:1014000000F8013B80D331F8023B20F8023B7BE738
:10141000043AD9D3013A11F8013B00F8013BF9D263
:101420000B7803704B7843708B78837060467047FD
:101430004FEA410C7FEA6C5C02D150EA013C0AD1D0
:101440004FEA430C7FEA6C5C02D152EA033C02D1C2
:101450004FF0000070474FF0010070474FEA410223
:1014600012F5001215D211D56FF47873B3EB6252F6
:1014700012D94FEAC12343F0004343EA505311F01D
:10148000004F23FA02F018BF404270474FF00000AF
:10149000704750EA013005D111F0004008BF6FF0ED
:1014A000004070474FF00000704700BF2DE9F04F3B
:1014B00007468C460846099E15463C461946002BB1
:1014C00040F0C6808242B2FA82F746D94FB1C7F1E6
:1014D000200E24FA0EFE00FA07F3BD404EEA030C7C
:1014E000BC404FEA15481FFA85FEBCFBF8F9220CF8
:1014F00008FB19C309FB0EFA42EA03439A4528D9AF
:10150000EB1809F1FF3004D29A4502D9A9F1020083
:101510002B44A3EB0A03A4B2B3FBF8F208FB12338B
:1015200002FB0EFE44EA0344A64514D92C1902F12D
:10153000FF3303D2A64501D9931E2C44A4EB0E041D
:1015400043EA00401EB1FC40002334607360BDE8F4
:10155000F08F4846DDE71346F0E702B9FFDE87BBB0
:10156000831A01214FEA154EAAB2B3FBFEFC200CF0
:101570000EFB1C330CFB02F840EA0343984563D989
:10158000EB180CF1FF3004D2984502D9ACF10200FF
:101590002B44A3EB0803A4B2B3FBFEFC0EFB1C33ED
:1015A0000CFB02F244EA0344A2424FD92C190CF17D
:1015B000FF3304D2A24202D9ACF102032C44A41A94
:1015C000BEE7C7F1200C20FA0CF800FA07F324FA62
:1015D0000CFCBD404CEA03024FEA154EABB2B8FB1F
:1015E000FEFC110C0EFB1C800CFB03F941EA0040D1
:1015F000814504FA07F423D928180CF1FF3104D2ED
:10160000814502D9ACF102012844A0EB090092B255
:10161000B0FBFEFC0EFB1C000CFB03F842EA00438F
:1016200098450FD9EB180CF1FF3204D2984502D936
:10163000ACF102022B44A3EB080342EA014191E71B
:101640006146E2E76246F6E76046A2E76346B6E730
:10165000834205D90EB1C6E900700021084676E73D
:10166000B3FA83F181B9834201D3BA420AD8BC1AD2
:1016700060EB030301209C46002E68D0C6E9004CB5
:10168000002164E70846F7E7C1F1200C8B4022FAFD
:101690000CF41C4302FA01F500FA01F327FA0CF2EC
:1016A00020FA0CFB4FEA14491343BBFBF9F81FFA6D
:1016B00084FE09FB18BB1A0C08FB0EFA42EA0B4227
:1016C000924507FA01F73ED9A21808F1FF3004D27B
:1016D000924502D9A8F102002244A2EB0A029BB271
:1016E000B2FBF9F809FB182208FB0EFE43EA02429E
:1016F00096452AD9A21808F1FF3304D2964502D99B
:10170000A8F10203224443EA0040A0FB0593A2EBA8
:101710000E029A42CE46984602D306D14F4504D2D5
:10172000B9EB050E63EB0408013886B1B7EB0E0385
:1017300062EB080707FA0CFCCB404CEA0303CF40EE
:10174000C6E900379CE74046C7E74346DBE731463A
:10175000FDE600000000000001A1D1E90001704792
:10176000C071D000100000002DE9F04188461646F7
:10177000C76A016B456B4C193034A74218D81C4D11
:1017800019A3D3E90023A1FB0501FFF715FD20F004
:101790007F40C8F80000E01B13A3D3E90023A0FB9F
:1017A0000501FFF709FD20F07F403060BDE8F081C2
:1017B0000F4C0DA3D3E90023A7FB0401FFF7FCFCAA
:1017C00020F07F40C8F8000005F1300006A3D3E9FF
:1017D0000023A0FB0401FFF7EFFC20F07F40306006
:1017E000E4E700BFAFF300808D49FD1A0700000059
:1017F00000CA9A3B0000000010B504469C460379DD
:1018000061F345130371DBB29DF8081061F3C40363
:10181000037102830A48ACFB000107A3D3E900234C
:101820004FF0910E0EFB0C11FFF7C6FC20F07F402D
:10183000E06110BDAFF300808D49FD1A0700000084
:10184000002AE784000000002DE9F0478CB0044630
:1018500090F844306FF3000380F84430D8B2C0F3FE
:10186000800094F8203060F3861384F8203004F16F
:101870002E0119F0E8FB94F820306FF3420384F84E
:101880002030DBB26FF3C71384F8203000252570B9
:10189000A5616561E461A68E3948A6FB000136A307
:1018A000D3E90023912707FB0611FFF785FC20F001
:1018B0007F4865603123A360E560A36B0933A8F11D
:1018C0003102934252D2236119F03FF882462046FA
:1018D00008F050FE064602230B93A38E4FF000093A
:1018E000274FA3FB0775912202FB035522A3D3E9DF
:1018F000002338462946FFF75FFC20F07F4121484E
:10190000A1FB0003072202FB0131381A4FF47A725F
:101910004FF0000365EB0101FFF74EFC2369B21C99
:101920000BAD089518490791069418490591049341
:10193000CDF80C900290CDF80480CDF8009053467D
:10194000D2B20321484618F0CDFF294608F080F8AE
:1019500080B994F8443043F0020384F84430022004
:101960001AF068FE48460CB0BDE8F08722610023FB
:10197000A363A9E70C20F6E78D49FD1A07000000D4
:10198000002AE7848D49FD1A31950000E5A5000085
:101990002DE9F04F93B00A900C460B79063B072BCC
:1019A00000F2C681DFE813F00800C4019400C00013
:1019B000C401C401C4019A01D1F808A0DAF80830C2
:1019C0005BB18C239D4A9E499E4818F07EF84040AA
:1019D00080F311884FF0030002DFDAF8006096F818
:1019E000493013F0040F70D1D6F850B0304608F0EB
:1019F000C1FD0230C3B20F9301230E9300230C9359
:101A00001F461D460B930D930A9B23600022E26044
:101A1000E37E62F38203E37604F1220894F8213036
:101A2000002B00F0938194F8222012F03F0F00F079
:101A30008D8194F8232094F92330002BC0F29281F9
:101A400004F1240912F0010F0BD0BBF1000F06D0F6
:101A500096F8493003F01803102B40F0B38104F1DD
:101A60002A0994F8233013F0020F01D009F1060976
:101A700013F0040F01D009F1010913F0080F00F071
:101A8000AB814A4609F1020913F0100F00F0A6815C
:101A9000CDF8409009F1030913F0200F00F0AF8159
:101AA00009F112031193BBF1000F00F0A381002A8A
:101AB00000F0A3815178090930461AF019FC00287A
:101AC00040F08F81DDF8449099E14FF0000B8DE7F5
:101AD000D1F808A0DAF808305BB19E23574A58497C
:101AE000584817F0F2FF404080F311884FF0030090
:101AF00002DFDAF8006096F8493013F0040F10D1D5
:101B0000D6F850B0304608F035FD0230C3B20F931E
:101B100004230E9300230C931F461D460B930D9335
:101B200072E74FF0000BEDE78B680B931D682846BA
:101B300009F0C4F8074648B3D5F828A0BAF1000F59
:101B400017D03C224049284618F088FCC0B2033028
:101B5000C3B20F930027BAF1000F7FD0DAF80080EC
:101B6000404608F055FE064600287AD04FF000089F
:101B700077E0B623314A3549324817F0A6FF404096
:101B800080F311884FF0030002DFDAE7284608F0FF
:101B90003FFE824630B3D4F808A0DAF808300B9341
:101BA0009BB10B9B1D68AB6A534540D0CA23234AA7
:101BB0002749244817F089FF404080F311884FF0EF
:101BC000030002DFFF230F93C5E7C7231B4A214908
:101BD0001C4817F07AFF404080F311884FF0030053
:101BE00002DFDEE7A768FB6B0B939BB10B9B1D68C5
:101BF000AB6ABB421ED0D923104A1749114817F0CF
:101C000064FF404080F311884FF0030002DFFF23A0
:101C10000F93A0E7D623094A0E490A4817F055FF4B
:101C2000404080F311884FF0030002DFDEE7FF231E
:101C30000F9390E7FF230F938DE700BF28F5010076
:101C4000C4F501001CF001007C5800209CF5010047
:101C5000DCF50100D4F50100F0F50100D7F80080B3
:101C600056460B9B5B7903F007030E935EB396F821
:101C7000492012F0040F14D1D6F850B0022B1CD01A
:101C8000042B1DD0012B0FD0FB23934A934994487A
:101C900017F01BFF404080F311884FF0030002DF74
:101CA00084E04FF0000BE9E706232371A37EC3F322
:101CB000C0030C9300230D93A6E607232371F5E7D9
:101CC00008232371F2E70D232371404609F052FBEC
:101CD000E080B3460D9600230C9395E68F68FB6B6E
:101CE00063B14FF48F737C4A7E497D4817F0EDFE57
:101CF000404080F311884FF0030002DF3D68284622
:101D000009F038FBE080FB7A03F007030E93E368E9
:101D10000D93284609F02EFBC0B20430C3B20F93D6
:101D200000230C939A469B461E461D460B936BE67A
:101D300040F23D13684A6949694817F0C6FE4040C1
:101D400080F311884FF0030002DF2FE00BB1013B5D
:101D5000DBB277B33968B1F8B8201344A38300230A
:101D6000A1F8B830BBF1000F0BD096F8493003F062
:101D70001803102B05D096F849306FF3C40386F88A
:101D80004930002D00F049822B6B002B00F01A82A5
:101D900096F8442012F0010F08D1DC602C63AB6A86
:101DA000002B00F02C82284608F0E8FE13B0BDE8B6
:101DB000F08F2DB1AA8E13449BB2AB86A383D1E7DB
:101DC000A383CFE794F82010637E4A46C1F38011C5
:101DD00030461AF011FA42E6002255E60021109131
:101DE0005AE64B4622462946304600F041FADDF8D5
:101DF000449004E0DDF8449001E0DDF8449094F86C
:101E0000233013F0400F01D009F10109A9EB0808B4
:101E10005FFA88F894F8223003F03F0301339845C5
:101E200033D8A3EB08085FFA88F2984694F821307B
:101E300043452CD9A3EB08085FFA88F823790D2BCA
:101E400028D0109B63B119465A789B7803F01F0382
:101E500052EA032304D00C9A12B98B785F2B45D930
:101E6000FFB13A68B2F8B8309844A4F81C80002357
:101E7000A2F8B8300C9B002B3FF474AFF5B12B6B7C
:101E8000E3B12B6BDC602C6390E70022CEE74FF0D0
:101E90000008D3E7002AD4D04946A07909F010FC05
:101EA000CFE745B1AB8E98441FFA88F8A5F8348087
:101EB000A4F81C80DEE7A4F81C80DBE740F2DB130B
:101EC000054A0949064817F000FE404080F3118892
:101ED0004FF0030002DFD4E728F50100D4F1010040
:101EE0001CF0010008F601001CF60100002D00F0B6
:101EF000CA80AB8E4344AB86002F00F0FA803A686C
:101F0000B2F8B83043449BB2A2F8B830A38310981B
:101F100002780B990B7962F305030B7183785A09E8
:101F2000012393404A7963F302024A71E37E13F07E
:101F3000080F40F0E780BAF1000F00F0F98096F842
:101F4000443013F0010F7FF40DAF0023CAF80830BE
:101F5000109B93F90030002BC0F209811E230B9ACD
:101F60009360109A5778937803F01F0347EA03278A
:101F70000B9B9B6803FB07F7127812F0400F00F0F1
:101F8000FB80322607FB06F6AD4AA2FB0626B60CFE
:101F900006F1100203EB42032033DDF82C80C8F871
:101FA000083098F80500012100F007001AF0A6FBA0
:101FB00063691F440E9901F00303063394F821204E
:101FC00013440333DA00C1F3400322FA03F3FB1A8C
:101FD000303B1B1A9E1B00236B603122AA60EB6012
:101FE00098F8052002F0030303F58473DB00C2F3C5
:101FF0004002D340184400F5C870924F8EA3D3E935
:102000000023A0FB0701FFF7D7F820F07F402861ED
:1020100089A3D3E90023A6FB0701FFF7CDF820F041
:102020007F460F9AFF2A40F0B0803C22864928461E
:1020300018F014FAC2B2236929690332089583485B
:102040000790069582480590049100200390029025
:10205000019000963A3BD2B2012118F043FC0028CF
:102060003FF4A4AE02283FF4A1AE40F2BB23794A6C
:1020700079497A4817F029FD404080F311884FF0E4
:10208000030002DF92E6764818F0C2F90346D8B1A1
:1020900000220263C262A0F8348000F11C010B919F
:1020A00090F8201062F3C71180F82010027082614E
:1020B0004261D861BAF1000F19D052469A620D9A66
:1020C0009A630D951D4617E7E27E12F0080F02D0C5
:1020D00042F00402E27647B13968B1F8B820904482
:1020E000A4F81C800022A1F8B8201D463AE63A4622
:1020F000E4E72B6B23B1DC602C63AB8EA38306E794
:10210000EC62F9E743F00403E3766FB10B9BFB63EA
:1021100021460A9807F0E6FB07F0ECFB0B9A1379CF
:102120006FF38613137141E60B9BCAF80830F5E78D
:102130002FB1FB6B83B1FB6B0B9A93420CD040F237
:102140005523444A4749454817F0BFFC404080F3B7
:1021500011884FF0030002DF3B6893F88E3013F0D4
:10216000080F7FF4FFAD0B9BFB63EC62F0E64FF4CE
:1021700096730B9A9360F4E64FF4FA7607FB06F633
:102180002F4AA2FB0626B60C02E72369334400203F
:10219000019000903A3B012105F090FA00283FF4AD
:1021A00044AF02283FF441AF40F2AB23294A2A4909
:1021B0002A4817F08AFC404080F311884FF0030052
:1021C00002DF32E76FB121460A9807F08BFB07F078
:1021D00091FB3B6893F88E3013F0080F3FF4DFADAE
:1021E000E4E540F2DB231B4A1F491C4817F06DFC55
:1021F000404080F311884FF0030002DFE3E740F234
:10220000E623144A1949154817F05FFC404080F353
:1022100011884FF0030002DFC5E521460A9807F058
:1022200061FB0D9B13B1184619F097FF07F062FB95
:10223000BCE500BFAFF300808D49FD1A0700000028
:1022400083DE1B4300CA9A3B7C5800208DA8000007
:1022500049A9000028F5010074F601001CF00100F6
:10226000C858002030F601006CF50100FCF50100B3
:102270002DE9F04F8DB006460F4693469846046D03
:1022800094F83E9084F83F9004F11C024FEA49050F
:1022900009EB49035B0010331344981DD8F8042060
:1022A000C3F8062098F808300371DBB203F01F036F
:1022B0000371052118F00EF900F03F0005EB09034A
:1022C00004EB430393F8372060F3050283F83720CB
:1022D000012840F2138196F8492094F88E3062F379
:1022E000000384F88E30D6F84A30C4F88830B6F847
:1022F0004E30A4F88C30D8F80930236204F1200065
:102300001AF0F9F82086B8F80D2098F80F30A2845A
:1023100084F82630B8F81030E38597F8212094F837
:10232000273062F3020384F82730B8F802A01FFABE
:102330008AF540F2E24000FB05F5B4F87E3042F247
:10234000107202FB0353013BB3FBF5F39BB2A4F8FD
:10235000803094F88E30062262F3061384F88E30B3
:1023600098F808904FEA59191AF0E6F907464846D6
:102370000BF044F9384405FB00F000F5742000F23E
:102380003F206D4BA3FB0030800C60646B08963BD4
:10239000A36498F8013013F0200F00F0B2804FF4DE
:1023A0009673636596F84930022262F3C40386F897
:1023B0004930204608F0DEFF0746D4F8B4300C223E
:1023C0001A71D8809E60A3F822A094F82720C2F347
:1023D000020283F8212083F8249094F82700012139
:1023E00000F007001AF08AF9DBF8143098F80020A2
:1023F00098F8011001F01F0842EA0828626D02FBFC
:10240000083311F0400F7FD04FF41618984494F819
:1024100027C00CF003039A1D9BF821100A440332D5
:10242000D200CCF3400C22FA0CF2A8EB0208A8F17F
:102430003008A8EB0008666CAD1B4FF00009C4F82B
:1024400004903122A260C4F80C9003F58473DB0081
:1024500023FA0CF3184400F5C870384E34A3D3E9BE
:102460000023A0FB0601FEF7A7FE20F07F4AC4F878
:1024700010A0334BC4F88430DBF810B02CA3D3E9A0
:102480000023A8FB0601FEF797FE0B90A5FB06654F
:1024900027A3D3E9002330462946FEF78DFE20F01E
:1024A0007F482848A8FB0001072303FB0811301AC6
:1024B0004FF47A724FF0000365EB0101FEF77CFEEA
:1024C0003A1D40F2EF2308931F4B079306941F4BCE
:1024D0000593CDF810A0CDF80C900290CDF80480B3
:1024E0000B9B23F07F400090ABF13A03D2B2012165
:1024F000484618F0F7F908B1022808D10DB0BDE838
:10250000F08F1E2363654DE74FF000087EE74FF420
:102510003C730F4A0F49104817F0D7FA404080F338
:1025200011884FF0030002DFE8E700BFAFF300803F
:102530008D49FD1A0700000083DE1B4300CA9A3B49
:10254000F5F800008D49FD1A99AF0000F1AF0000C9
:10255000DCF601000CF501001CF001000000000099
:102560002DE9F0418AB00D4614460223099308F084
:1025700001FF07460026DFF8A08025A3D3E900234A
:10258000A5FB0801FEF718FE054621A3D3E90023A9
:10259000A4FB0801FEF710FE3A1D09AB06931F4B82
:1025A00005930496039620F07F40029025F07F4526
:1025B000019500963346D2B20321304618F0ADF9AA
:1025C000022800D080B94FF0FF324FF0FF3314489B
:1025D00010F042FE099B012B03D000200AB0BDE899
:1025E000F0816FF00D00F9E7099B022B05D1099BE3
:1025F000012B0AD06FF00B00F0E74FF0FF324FF0E5
:10260000FF33074810F028FEF1E76FF00100E5E71F
:102610008D49FD1A0700000000CA9A3BA5B10000D1
:10262000B0590020000000002DE9F04F016C9DB072
:1026300016461F46CDE90267299C824649B1426C85
:102640004A60012393408B6014F0B4FD0023CAF864
:102650004030B7F10008B4BF012300232360764B5C
:10266000BCBF28F00048CDF80C8033EA080300F026
:10267000AC80DDE902340022184621460023CDE972
:102680000801FEF709FE054670B1289A0123136080
:102690002A9B002B00F0F08268481860431E0693C6
:1026A00006981DB0BDE8F08F1AAB01931BAB0093E9
:1026B0005046DDE9082315F09FF85FEA1854834679
:1026C00040F09980DDE91A542C4404F23243202B67
:1026D00040F3B883C3F1400304F2124008FA03F850
:1026E00026FA00F048EA0000FEF77CF80123013CDE
:1026F000A1F1F8710F93524B0022FDF735FF48A36B
:10270000D3E90023FEF7E8F847A3D3E90023FDF758
:102710002DFF064620460F46FEF774F844A3D3E982
:102720000023FEF7D9F802460B4630463946FDF73E
:102730001DFF06460F46FEF791FE0022814600234C
:1027400030463946FEF7B2FD002840F088822C1B47
:10275000631EB9F1160F049300F27582394B03EB37
:10276000C903D3E90023DDE90801FEF79FFD002836
:102770006ED000230E93631E002B09F1FF39C0F2C7
:10278000688200230A93B9F1000F67DA0A9BCDF83B
:102790002C90A3EB09030A93C9F100030D93269B28
:1027A000092B4FF0000963D8052B40F34983043B04
:1027B00026930024269B023B032B00F24E86DFE883
:1027C00013F052044F0446042704289A42F20F7370
:1027D000C8F31308136058EA06031AD12A9B002B8A
:1027E00000F05286184B069308332A9A0698136015
:1027F0001DB0BDE8F08FDDE90812C2F313030846EF
:1028000043F07F510F95A4F2FF341A9D41F440111B
:1028100071E72A9B002B40F0EA830C4B06933FE7BD
:1028200061436F63A787D23FB3C8608B288AC63FD6
:10283000FB799F501344D33F0000F07FD5F1010096
:102840000000F83F20EA0100F8010200F401020054
:10285000631E002BC0F275840E900A90049BCDF885
:102860002C904B44049300230D93269B092B9BD95A
:102870000023CDE9263301244FF0FF330C94079356
:10288000079B16930021CAF84410504614F06CFCC4
:102890000690002800F0EA85069BCAF84030079BA6
:1028A0000E2B00F21D81002C00F01A810B990029DB
:1028B00040F34984B44B01F00F0203EBC2030A4614
:1028C000D205D3E900454FEA211640F10284AF4B0F
:1028D000DDE90801D3E90823FEF728F9CDE9100165
:1028E00006F00F064FF0030886B1A84FF30709D58D
:1028F00020462946D7E90023FDF7EEFF08F101083D
:1029000004460D46761007F10807EFD1DDE9100106
:1029100022462B46FEF70AF9CDE912010E9B53B170
:10292000DDE912459A4B002220462946FEF7BEFCFF
:10293000002840F016854046FDF764FFDDE91223CC
:10294000FDF7CAFF934B0022FDF710FE079B0646DA
:10295000A1F15077002B00F0A9800B9B1793079BE8
:102960001093DDE91245069B29462046CDE9146700
:102970005F1CFEF773FD1099834B03EBC10353E912
:10298000021200F13006CDE91212FDF73BFF0246BC
:102990000B4620462946FDF7E7FD0D460C99DDE97B
:1029A0001223F6B20446002900F088847A490020F8
:1029B000FEF7BCF8DDE91423FDF7D6FDDDF818C0FD
:1029C00002460B46CDE912238CF8006022462B46C6
:1029D000FEF78AFC002840F0BC84CDF86490CDF866
:1029E00050B0CDF860A04FF00008DDE912ABB94659
:1029F0002CE0109B08F10108984580F20785674B91
:102A0000504659460022FDF767FF644B002282467C
:102A10008B4620462946FDF75FFF0F460646FEF728
:102A20001DFD0546FDF7EEFE02460B4630463946D3
:102A3000FDF79AFD303509F8015B52465B460446C6
:102A40000D46FEF733FC002840F0D88422462B4682
:102A50004F490020FDF788FD52465B46FEF726FCF5
:102A60000028C6D0179CDDF850B0DDF860A0069AAB
:102A70004E46013402E0964200F0A284374616F832
:102A8000013D392BF7D00133DBB233700294BCE146
:102A90004046FDF7B7FEDDE91223FDF71DFF3D4B74
:102AA0000022FDF763FD0646A1F150773C4B002262
:102AB000DDE91201FDF758FD32463B4604460D465E
:102AC000FEF712FC8046002840F08984324607F168
:102AD000004320462946FEF7E9FB002840F0288302
:102AE0001B9B002BC0F290800B9A0E2A00F38C8067
:102AF000254B03EBC203D3E90089279B002B1BDA8C
:102B0000079B002B18DC40F01183254B4046002228
:102B10004946FDF7E1FE02460B46DDE90801FEF7F6
:102B2000CFFBDDF81C804446002800F0B382279BD1
:102B3000069F6FEA0309B4E2DDE9084542464B46C9
:102B400020462946FDF7F2FFFEF788FC0746FDF711
:102B500059FE42464B46FDF7BFFE069E0B46024617
:102B600029462046FDF700FD07F1300306F8013B3A
:102B7000079B012B00F04E83CDF810A00127CDF864
:102B800008B09A462BE000BF20EA0100F8E90100F6
:102B90000000F03F00001C400000E03F0000244027
:102BA0000000144042464B4620462946FDF7BEFF32
:102BB000FEF754FC8346FDF725FE42464B46FDF7E3
:102BC0008BFE01370B46024629462046FDF7CCFC1A
:102BD0000BF13003574506F8013B00F01683A64B76
:102BE0000022FDF779FE0022002304460D46FEF781
:102BF00053FB0028D6D00B9BDDF808B0DDF810A001
:102C000001330293374600E10C9A002A3AD0269A03
:102C1000012A40F37C82079B5E1E0D9BB342C0F2EB
:102C200052829E1B079B002BC0F22F83049A1A44EA
:102C300004920A9A15461A440A920121504614F049
:102C400061FB044621E001230E93631E002BBFF6B7
:102C500098ADC4F101030A930023049393E5484619
:102C6000FDF7D0FD32463B46FEF716FB00287FF409
:102C70006EAD09F1FF396AE5804B069306981DB0E9
:102C8000BDE8F08F0D9E0A9D0C9C002D0CDD049973
:102C900000290B4608DD0A9AA942A8BF2B46D21A82
:102CA000ED1ACB1A0A9204930D9BCBB10C9B002B0F
:102CB00000F04082002E0FDD21463246504614F0CF
:102CC000FDFB5A4601460446504614F049FB59465E
:102CD0008346504614F06EFA0D9B9A1B40F0CF824B
:102CE0000121504614F00EFBB9F1000F804600F3AD
:102CF000AE80269B012B40F37F8100260120B9F195
:102D0000000F40F0AF80049A104410F01F0000F054
:102D10008E80C0F12003042B40F3BA830A9BC0F1DC
:102D20001C00034402440A93054404920A9B002BAE
:102D300005DD59461A46504614F020FC8346049B94
:102D4000002B05DD41461A46504614F017FC80461C
:102D50000E9B002B40F02F81079B002B40F3168128
:102D60000C9B002B40F099800B9B01330293069E35
:102D7000079F012507E0594600230A22504614F018
:102D800023FA013583464146584613F03FFEBD42C3
:102D900000F1300306F8013BEDDB079A002AC8BFBB
:102DA0001546069AD8BF01251544002204925946BB
:102DB00001225046079314F0E1FB4146834614F08C
:102DC00055FC002840F3918115F8013C069A013D1D
:102DD00004E0AA4200F0948115F8013D392B05F179
:102DE0000107F6D001332B704146504614F0E2F94A
:102DF0005CB1049B2BB1A34203D01946504614F09A
:102E0000D9F92146504614F0D5F95946504614F0E8
:102E1000D1F900233B70289B029A1A602A9B002B51
:102E20003FF43EAC06981F601DB0BDE8F08F1C203B
:102E30000A9B03440A93049B03440544049375E7E7
:102E40000124B7E4C3F1200306FA03F04CE4014681
:102E50004A46504614F032FB269B012B804640F335
:102E60009E810026D8F8103008EB8303186914F00F
:102E7000FBF9C0F1200046E700002440D4F1010036
:102E8000214600230A22504614F09EF9169B002B7F
:102E9000044640F3D6820B970793002D00F30C8174
:102EA000002E40F0D5812646029BDDF81890079948
:102EB00003F0010209F1FF331944269B0C921343DE
:102EC0000A9108934146584613F0A0FD214602900E
:102ED000584614F0CBFB324607464146504614F0A4
:102EE000E5FB029BC26805463033002A40D101460B
:102EF0005846079314F0BAFB29460490504614F044
:102F000059F9049A079B1AB90899002900F086829A
:102F100009F10101002F0D46C0F25981269807439F
:102F20000C98384300F05381002A00F3B2810A9ACA
:102F300089F80030914500F0B281594600230A22F9
:102F4000504614F041F9B442834621464FF0000345
:102F50004FF00A02504613D014F036F931460446B9
:102F600000230A22504614F02FF9A9460646A9E785
:102F700001465046049314F01DF9049B0122C7E753
:102F800014F022F9A946044606469BE7269B022B2D
:102F90006FDC0C9B002B80D10B9B414601335846C4
:102FA000029313F033FD069D00F13003002205F873
:102FB000013B0492FBE64146584614F057FB0028BB
:102FC000BFF6CAAE594600230A22504614F0FCF858
:102FD0000B9B5F1E0C9B8346002B7FF451AF169B0F
:102FE000002B40F326820B9A02920793BFE6AF4B69
:102FF00006930333FFF7F9BBDDE9021200297FF4E2
:103000007CAEC2F31303002B00F0D480029E75E661
:1030100001230C93279B0B9A134416930133012B26
:103020001D460793B8BF01250021172DCAF844108B
:103030007FF72BAC012204235B0003F11400A842AC
:10304000114602F10102F7D9CAF844101DE4012328
:103050000C93279B002B43DD169307931D46E3E754
:1030600000230C93D6E700230C93F2E7169B0B97F3
:103070000793079B002B7FF45AAD4146052250462B
:1030800014F0A2F801468046584614F0EFFA0028E2
:103090007FF74DAD0B9B069F03F10109312307F824
:1030A000013B09F1010341465046029314F082F8B6
:1030B000002C7FF4A6AEA8E621462A46504614F01E
:1030C0005DFA0446ECE60D9B0D96F31A9944002632
:1030D000A8E5DDE908234FF00208CDE9102303E459
:1030E000012327930793FFF7CBBB03D1079BDB0794
:1030F0003FF56AAE2F4615F8013D302BFAD073E646
:10310000029B069A01330293312313706CE60F9AE7
:10311000002A00F0228103F23343049A0D9E1A44E0
:1031200004920A9A15461A440A9286E54FF000085E
:103130004446FCE459460D9A504614F0BFF98346C4
:10314000CEE50E9085E500F033810B9A584B544242
:1031500004F00F0203EBC203D3E90023DDE9080109
:10316000FDF7BAFB2411CDE9120100F07281514D37
:1031700000234FF00208E60706D5D5E90023FDF746
:10318000ABFB08F101080123641005F10805F2D139
:10319000002B3FF4C3ABCDE91201FFF7BFBB029B8D
:1031A000002B7FF45EAEDDE90212C2F31303002BA5
:1031B0007FF457AE404E1640002E3FF49FAD0A9B61
:1031C00001330A93049B01330493012696E5002AF8
:1031D0000F4612DD594601225046049314F0CEF9F1
:1031E0004146834614F042FA0028049B40F30081D4
:1031F000392B00F0EB80029B313389F800300B9BB8
:103200000494013302933446EEE55F46DDF810A0E6
:10321000DDF808B00B9B0133029302461C460B46B7
:10322000FDF7A4F902460B46CDE9042342464B467E
:10323000FEF75AF840B9DDE9040142464B46FEF775
:103240002BF818B1F90701D5069A17E43746DCE5E3
:103250006168504613F088FF0546002800F00D8194
:10326000236902339A0004F10C010C30FEF746F892
:1032700029460122504614F081F9064614E65946C3
:10328000504614F01BF983462AE50A9B079A9D1ABB
:10329000D3E4392B0F4600F099800133ADE70B9A48
:1032A000049401320292344681E500BFF401020029
:1032B00020EA0100F8E901000000F07FDDE91401D7
:1032C000FDF70AFB069B1E70109B012BCDE9120136
:1032D00000F0B580109E069B1E44764B00222046CF
:1032E0002946FDF7F9FA0D460446FEF7B7F8804681
:1032F000FDF788FA08F1300802460B4620462946B9
:10330000FDF732F907F8018BB74204460D46E4D1C8
:10331000DDE91278684B002238464146FDF726F970
:1033200022462B46FDF7C2FF00285CD13A464346B1
:1033300061490020FDF718F922462B46FDF7D4FF1E
:1033400000283FF4CDAB3746013E17F8013C302B47
:10335000F9D0179B0133029357E51A9BC3F136034B
:10336000DBE6079B002B3FF493AB169B002B7FF70C
:10337000B7AB0B9A1093013A4E4B1792204600229E
:103380002946FDF7A9FA04460D4608F10100CDE9EA
:103390001245FDF737FA22462B46FDF79DFA474BBB
:1033A0000022FDF7E3F80646A1F15077FFF7D9BAFE
:1033B000DDE908344FF00208CDE91234FFF7AEBA68
:1033C00001343123FFF761BB09F101050B9B049424
:1033D000013302933923344689F80030F6E44FF084
:1033E0000008444656E6179C069A0134FFF746BB90
:1033F0007FF403AFDA077FF500AFF9E6DDE9173AAE
:103400000133DDF850B002934F46FEE4DDF86490DE
:10341000DDF850B0DDF860A0FFF762BB392BD3D0E8
:10342000002FC8BF029B4F46C8BF313307F8013B8E
:10343000E5E6269B022B3FF719AE0B97ACE53E461F
:1034400066E7269B022B3FF711AE169B0B9707935F
:1034500023E54FF00208FFF761BA0024CAF84440A0
:103460002146504613F080FE0690B0B9144B154823
:1034700000224FF4D57115F0CFF9114B11482A46AF
:1034800040F2EA2115F0C8F90F4B0693FFF708B98F
:103490003FF44CACC0F13C00CAE4069BCAF8403093
:1034A00001224FF0FF33279416930C920793FFF7F6
:1034B00017BB00BF000024400000E03F00001C409C
:1034C0000402020018020200F801020004280AD8CF
:1034D000DFE800F0030B05090700054870470548C1
:1034E000704705487047054870470548704700BF5A
:1034F0000CEB0100F8EA010000EB0100E8EA010032
:10350000F0EA010004280AD8DFE800F007030B09FD
:10351000050005487047054870470548704705484D
:1035200070470548704700BF30EB010024EB0100F5
:10353000BCEC0100E8EA010018EB010010B50A48F4
:1035400015F02CFF094803F015FC094C204615F036
:1035500025FF084815F022FF074803F049FD2046E3
:1035600015F01CFF002010BD34EB01007803002093
:1035700050EB01005CEB0100840300202DE9F047D3
:103580008946244811F012FC00240FE017F90A10B4
:10359000214811F00BFC08E098F90120002A2BDBF0
:1035A00017F90A101D4811F001FC013499F80A506E
:1035B000A54227DDD9F80C704FEA440A07EB44080E
:1035C00098F90100FDF754FC064617F91400FDF7C1
:1035D0004FFC01463046FDF753FD114B1860013D8D
:1035E000A542D9DD98F90120002ACFDB17F90A108E
:1035F0000C4811F0DBFBD8E717F90A100A4811F064
:10360000D5FBD2E7094811F0D1FB094811F0CEFBF8
:10361000BDE8F08788EB0100A0EB0100A8EB0100FA
:10362000D821002098EB0100B0EB0100B8EB0100BD
:10363000F4EE01002DE9F043A1B004460D461E2230
:10364000002110A811F054FB10AA4A49284616F090
:1036500025FC25682B78032B6DD8DFE803F0025694
:103660006066454B93E803000D90ADF83810090CE7
:103670008DF83A10AB796A792979E878AE786D7867
:103680000DAF0597049503960290019100923B4A75
:103690001E2118A815F090FEE67994F9067094F9A9
:1036A00005802589207BFFF711FF8146607BFFF7AE
:1036B0000DFF628902EB82039B1021790B910A9323
:1036C00009920890CDF81C90C5F300130693C5F33A
:1036D000C0030593C5F380030493C5F3400303932C
:1036E00005F00105029510AB0193CDF800803B4633
:1036F000324618A9224815F051FE224B1B780BB90F
:103700006389F3B921B0BDE8F0831F4B93E8030050
:103710000D90ADF83810090C8DF83A10AAE71B4A45
:103720000DAB07CA03C31A80A4E7194A0DAB07CA39
:1037300003C31A809EE7174A0A210DA815F03CFE24
:1037400098E703EB83039B10C3EBC303124A136098
:103750000C4B01221A702279104B1A702268104B00
:10376000106818609188927999809A710D480FF0CD
:103770004BFDC7E751920100BCEB0100D4EB010007
:10378000F8EB010090920020C4EB010080EC0100F6
:103790008CEC0100CCEB0100E02100209192002094
:1037A000D0210020100F002010B586B00023019317
:1037B000029303930493059301238DF8043002933D
:1037C0006023ADF80C303023ADF80E300D4B1B7874
:1037D0001BB10024204606B010BD0B4815F0DEFDDD
:1037E000002101A803F0DEF9044630B9074815F0BE
:1037F000D5FD044B01221A70ECE70146044815F090
:10380000CDFDE7E79292002098EC0100C0EC0100AA
:10381000ACEC010010B5094815F0C0FD084B186864
:1038200003F0C6FA044620B9064815F0B7FD204655
:1038300010BD0146044815F0B1FDF8E7CCEC0100DD
:10384000DC210020C0EC0100ACEC010010B582B01E
:103850000C4B6C4693E8030084E803000A4815F01B
:103860009DFD2146094B186816F0A3FD20B90848B4
:1038700015F094FD02B010BD0146064815F08EFD0E
:10388000F8E700BFD0E90100F4EC0100DC210020E2
:1038900010ED0100ACEC010008B5094815F07EFD03
:1038A00003F02EFA30B9074815F078FD064B0022D8
:1038B0001A7008BD0146054815F070FDF9E700BF14
:1038C00030ED010040ED010092920020ACEC0100CF
:1038D00000B585B0134815F061FD134B93E8030064
:1038E0000090ADF80410090C8DF806100023029327
:1038F0000E4A12788DF80720ADF80C300A23ADF887
:103900000E300B49684603F07DFA28B9094815F0D6
:1039100045FD05B05DF804FB0146074815F03EFD86
:10392000F7E700BF4CED0100D0210020919200206C
:10393000DC21002050EB0100ACEC0100F0B593B0AD
:1039400005460C682378032B41D8DFE803F0022AF0
:10395000343A224B93E803000790ADF82010090C8D
:103960008DF82210A37962792179E078A6786478BD
:1039700007AF059704940396029001910092184AAC
:103980001E210AA815F018FD284603F005FA014685
:103990000AAA144815F002FD13480FF035FC13B0C5
:1039A000F0BD124B93E803000790ADF82010090C0E
:1039B0008DF82210D6E70E4A07AB07CA03C31A8058
:1039C000D0E70C4A07AB07CA03C31A80CAE70A4A02
:1039D0000A2107A815F0F0FCC4E700BFBCEB01000A
:1039E000D4EB010074ED0100400F0020C4EB010096
:1039F00080EC01008CEC0100CCEB0100F0B593B041
:103A000006460D460C682378032B4ED8DFE803F0FA
:103A100002374147284B93E803000790ADF8201088
:103A2000090C8DF82210A37962792179E078A778C2
:103A300064780DF11C0CCDF814C004940397029027
:103A4000019100921D4A1E210AA815F0B5FC3046CE
:103A500003F0A2F90646EF8807EB8704A410287A42
:103A6000FFF734FD019000943B460AAA3146144802
:103A700015F094FC13480FF0C7FB13B0F0BD124BC8
:103A800093E803000790ADF82010090C8DF8221080
:103A9000C9E70E4A07AB07CA03C31A80C3E70C4A3B
:103AA00007AB07CA03C31A80BDE70A4A0A2107A861
:103AB00015F082FCB7E700BFBCEB0100D4EB0100BE
:103AC000A4ED0100280F0020C4EB010080EC0100F0
:103AD0008CEC0100CCEB01002DE9F04393B00746DC
:103AE0000D4616460C682378032B5CD8DFE803F0FC
:103AF00002454F552F4B93E803000790ADF8201077
:103B0000090C8DF82210A37962792179E07894F874
:103B100002C064780DF11C0ECDF814E00494CDF8C9
:103B20000CC0029001910092234A1E210AA815F0B0
:103B300043FCDFF8888040F6E5434246B1883068B0
:103B400015F0A9FB384603F027F9044695F90570EE
:103B500095F90690E879FFF7D5FCB388CDF80C808D
:103B600002930190CDF800903B460AAA21461448E2
:103B700015F014FC13B0BDE8F083124B93E803007A
:103B80000790ADF82010090C8DF82210BBE70E4A03
:103B900007AB07CA03C31A80B5E70C4A07AB07CACD
:103BA00003C31A80AFE70A4A0A2107A815F004FCEC
:103BB000A9E700BFBCEB0100D4EB0100E814002032
:103BC000ECED0100C4EB010080EC01008CEC010085
:103BD000CCEB010008B5384815F0E0FB374815F08C
:103BE000DDFB002002F050F940B9354815F0D6FB56
:103BF000FFF7A4FC334B00221A701FE00146324845
:103C000015F0CCFBF1E7304815F0C8FB4EE02F482B
:103C100015F0C4FBFFF71AFEFFF73EFE2C4815F027
:103C2000BDFB4FF0FF324FF0FF332A480FF014FB7B
:103C3000014600283BD1284815F0B0FB274B002255
:103C40001A70FFF7B1FD264815F0A8FB4FF0FF32C0
:103C50004FF0FF3323480FF0FFFA01460028D2D17E
:103C6000214815F09BFBFFF733FE204815F096FB2B
:103C70001F4B1868410CC00340F2E733C0184FF4E3
:103C80007A724FF0000341F10001FDF795FA024608
:103C90000B4618480FF0E0FA01460028B7D00A4852
:103CA00015F07CFBFFF7B6FD0028C7D008BD06481D
:103CB00015F074FBFAE700BF44EE01006CEE010062
:103CC000C0EC010092920020ACEC0100F8EE010083
:103CD00020EF0100400F002044EF010090920020EF
:103CE00088EE0100100F0020B0EE0100D8EE0100B8
:103CF000E0210020280F002008B50B6801330B607D
:103D0000014B1B68984708BDA0030020014B1860B9
:103D1000704700BFA003002000B583B002460B46E9
:103D20000021019101A9034800F0D8FA03B05DF821
:103D300004FB00BFF93C000010B584B004460190BC
:103D400002910021039101A9054800F0C7FA039BE5
:103D5000029A934201DA0022E254039804B010BDA3
:103D60006D9301002DE9F04383B0044608461546E3
:103D7000238B13F0080F05D103F0070600230093EF
:103D8000019369E0012909D043F02003238385F3DF
:103D90001188BFF36F8F03B0BDE8F08343F01003C9
:103DA0002383F4E7204615F03CFB57E0D4F8149049
:103DB0004A466946204615F04DFB00275AE0236924
:103DC0001F680621204615F005FB4FF0000951E061
:103DD00023695F680421204615F0FCFA4FF00009C2
:103DE00048E023699F680521204615F0F3FA4FF05B
:103DF00000093FE0002246E0002244E043F00803CF
:103E0000238385F31188BFF36F8F002944D1009B72
:103E10002BB14B4642466946204615F092FB17B13E
:103E200025492046B8474FF02003EFF3118583F36F
:103E30001288BFF36F8F238B23F008032383238B18
:103E400013F0100F2ED023F0100323830120268BB4
:103E500006F0070600289AD00228A3D0002896D0A2
:103E60000128A3D00328AAD00428B1D00528B8D0AF
:103E70000027B946238B03F00708B045BAD0A268E3
:103E8000002AB9D001221146002AB7D1009A002A8F
:103E9000B4D1002FB2D1D2E74A464146204615F0B0
:103EA000A1FAB4E713F0200F04D023F020032383FA
:103EB0000220CCE70020CAE7719501008446026821
:103EC000002005E000EB8000013203EB40003038B9
:103ED00013780449595C11F0040FF3D1CCF8002099
:103EE000704700BF9100020070B582B00446002305
:103EF0000360436083604B78252B02D04E1C012564
:103F00001FE0881CE37045E1237843F0040323702D
:103F1000B5B1013614E0237843F008032370F7E7C6
:103F2000237843F010032370F2E7237843F0200353
:103F30002370EDE7237843F040032370E8E7002582
:103F400045B33378203B102BF9D801A252F823F067
:103F5000213F00003F3F00003F3F00002B3F00009B
:103F60003F3F00003F3F00003F3F00003F3F000059
:103F70003F3F00003F3F00003F3F0000173F000071
:103F80003F3F0000093F00003F3F00003F3F00006F
:103F9000353F0000237803F04403442B5FD00196A3
:103FA000237843F08003237033782A2B5CD001A858
:103FB000FFF784FF019B9E420FD0237843F08003DC
:103FC00023706060DBB2C3F34003002854DB00229F
:103FD0001343227863F341022270019B01931B7803
:103FE0002E2B14BF00230123627863F34102627019
:103FF000002B43D0019B5A1C01925B782A2B3FD0A7
:1040000001A8FFF75BFFA0602378C3F340030028FB
:104010003EDB00221343227863F3410222700198B1
:1040200003784C3B2E2B00F29D80DFE803F0909B41
:104030009B9B9B9B9B9B9B9B9B9B9B9B9B9B9B9BD0
:104040009B9B9B9B9B9B9B9B9B9B339B579B459BC2
:104050009B9B9B9B9B9B899B9B9B9B9B8200237811
:104060006FF3861323709AE7637843F0010363705C
:10407000334601330193B1E70122A9E70198CFE765
:10408000637843F004036370104601300190C7E782
:104090000122BFE7421C4378682B06D063780221D7
:1040A00061F3C603637010461EE06378012262F379
:1040B000C6036370023017E0421C43786C2B06D0B5
:1040C0006378032161F3C603637010460CE06378E4
:1040D000042262F3C6036370023005E063780522B0
:1040E00062F3C6036370013010F8013BE370A3F183
:1040F0004102372A7DD8DFE802F05E7C7C7C5E5E80
:104100005E7C7C7C7C7C7C7C7C7C7C7C7C7C7C7C0D
:104110007C4F7C7C7C7C7C7C7C7C5E7C4F3A5E5ED5
:104120005E7C3A7C7C7C7C654F717C7C717C4F7CB6
:104130007C4F6378062262F3C60363700130D3E7D5
:104140006378072262F3C60363700130CCE76378BB
:10415000082262F3C60363700130237843F0020340
:104160002370C1E763786FF3C6036370BCE7A2787E
:10417000012161F30202A270627802F07802402A03
:1041800010D0632B13D02378C3F34002154365F39B
:104190004103237002B070BDA278022161F30202D4
:1041A000A270E9E7217841F001012170E9E7151ECD
:1041B00018BF0125E7E7A378042262F30203A37086
:1041C0000125E0E7A378032262F30203A37063787A
:1041D00003F07803402BD6D10125D4E7A37803223E
:1041E00062F30203A370637813F0780FCBD001253C
:1041F000C9E7237843F001032370C4E72DE9F04FAA
:1042000083B004460D4601929A460C9ED378324AFA
:1042100013F802B00BF0030B6F2B0FD006D9702BE5
:104220000FD0782B10D14FF0100923E0582B02D07B
:104230004FF00A091EE04FF010091BE04FF008098B
:1042400018E04FF0100915E04FF00A0912E0D2B261
:104250003032D2B206F8012D3A464346204629466E
:10426000FCF7AAFFBC4275F1000319D3564517D9D4
:1042700004460D464FF000084F464A464346204646
:104280002946FCF799FF092AE1D9BBF1010F03D0B8
:10429000D2B25732D2B2DDE7D2B23732D2B2D9E798
:1042A000019B1B7813F0200F05D0B9F1080F06D041
:1042B000B9F1100F09D0304603B0BDE8F08F019A74
:1042C000937843F008039370F5E7019A937843F0ED
:1042D00010039370EFE700BF910002002DE9F04F4B
:1042E00091B006460D4691460393002499F80000CC
:1042F000002800F0D582252808D009F101092946B7
:10430000B0470028C0F2CD820134EFE700230493C8
:1043100005930693079308930993494606A8FFF768
:10432000E3FD02909DF8193013F0010F00F0978023
:10433000039B1A1D03921F68002FC0F288809DF80E
:10434000193013F0040F00F09C80039B1A1D039298
:10435000D3F800A0BAF1000FC0F28A8000230793BF
:1043600008939DF81A3003F007039DF81910C1F364
:10437000C301012B00F08E80022B00F0D380042BB0
:1043800000F02481032B00F03B819DF8188018F089
:10439000030B40F03B819DF81B30253B532B00F273
:1043A000E681DFE813F04001E401E401E401E40107
:1043B000E401E401E401E401E401E401E401E401D5
:1043C000E401E401E401E401E401E401E401E401C5
:1043D000E401E401E401E401E401E401E401E401B5
:1043E000E401E401E401E401E401E401E401E401A5
:1043F000E401E401E401E401E401E401E401E40195
:10440000E401E401E401E401E401E4018101E401E7
:10441000E401E401E401E401E401E401E401E40174
:10442000E4015E016701E401E401E401E4016701E4
:10443000E401E401E401E401BE018101A201E4011F
:10444000E4014D01E4018101E401E40181019DF8F1
:10445000183043F004038DF818307F426FE79DF960
:104460001830002B02DB4FF0FF3768E7079F66E745
:104470009DF819306FF341038DF819304FF0FF3A72
:104480006CE713F0020F02D0DDF820A066E74FF0D2
:10449000FF3A63E7CB1E042B04D8DFE803F00B1DC3
:1044A00029353500039B1A1D03921B68DA17049304
:1044B000059206E0039B1A1D03921B68DA1704930A
:1044C0000592012928D002297FF45FAFBDF9103091
:1044D000DA170493059258E7039B073323F0070389
:1044E00003F108020392D3E90023CDE90423E8E7AE
:1044F000039B073323F0070303F108020392D3E978
:104500000023CDE90423DCE7039B1A1D03921B68FB
:10451000DA1704930592D4E79DF810300493002332
:10452000059332E7CB1E042B04D8DFE803F00B1F02
:1045300035414100039B1A1D03921B68049300231D
:1045400005931EE09DF81B30632B07D0039B1A1DBB
:1045500003921B6804930023059312E0039B1A1D2A
:1045600003921B680493002305930AE0039B07331F
:1045700023F0070303F108020392D3E90023CDE9F6
:10458000042301291CD002297FF4FFAEBDF81030AE
:10459000049300230593F8E6039B073323F00703F6
:1045A00003F108020392D3E90023CDE90423E8E7ED
:1045B000039B1A1D03921B68049300230593E0E7F5
:1045C0009DF81030049300230593DEE608290BD0F4
:1045D000039B073323F0070303F108020392D3E997
:1045E0000023CDE90423D0E6039B073323F0070320
:1045F00003F108020392D3E90023CDE90423C4E6C2
:10460000039B1A1D03921B680493BEE6029F3B4660
:104610004A462946304615F03EFA0028C0F241814C
:104620000444B94662E629462520B0470028C0F276
:1046300038810134D8460DF13E0A4FF000099BE065
:10464000DDF81090BAF1000F07DB5146484610F034
:1046500005FC09EB000AD8468EE04846FBF750FD02
:10466000F7E7049B8DF82830D8460DF1290A0DF1A3
:10467000280981E018F0080F05D118F0100804D0BF
:104680004FF0200801E04FF02B08049A059B002B07
:1046900002DB0492059308E0524263EB4303049269
:1046A00005934FF02D0800E0D8460DF13E0300932E
:1046B0000AAB06AADDE90401FFF7A0FD8146BAF1C5
:1046C000000FC0F288800DF13E03A3EB09039DF8B3
:1046D00018206FF386128DF818209A457ED9AAEB20
:1046E000030307930DF13E0A46E0049828B9D84623
:1046F000DFF8B4A1AAF105093EE00DF13E030093F5
:104700000AAB06AA0021FFF779FD81469DF81A3011
:1047100043F010038DF81A3078238DF81B30D846FB
:10472000CDE7049A9DF81930C3F3C303072B06D8CD
:10473000DFE803F0040B0D0F1115191B1460D846A8
:104740000DF13E0A4FF0000916E01470F7E71480EF
:10475000F5E71460F3E7E31714605360EFE7E3173E
:1047600014605360EBE71460E9E71460E7E7D846AC
:104770000DF13E0A4FF00009B9F1000F00F08D80F5
:10478000AAEB0902B8F1000F00D001329DF81A100F
:1047900011F0100F25D00232079B134411F0400F87
:1047A00001D0089A1344002F31DDFF1A9DF818300C
:1047B00013F0040F2BD113F0400F17D0B8F1000FF6
:1047C00017D029464046B04700286ADB0134D84656
:1047D0004FF0300B0FE00DF13E0ACDE70DF13E0A30
:1047E000CAE711F0080FD7D00132D5E74FF0200B00
:1047F00001E04FF0300B3B465F1E002B07DD2946E2
:104800005846B04700284CDB01343B46F4E7B8F18A
:10481000000F05D029464046B047002841DB01344F
:104820009DF81A30C3F30012C3F3C003134305D03D
:1048300029463020B047002833DB01349DF81A3078
:1048400013F0100F06D029469DF81B00B047002832
:1048500027DB0134079B03F1FF38002B07DD2946D6
:104860003020B04700281CDB01344346F3E75346B1
:104870004A462946304615F00EF9002811DB04445B
:10488000002F07DD29462020B047002809DB01342E
:10489000013FF5E7DDF8089028E5DDF8089025E50B
:1048A000204611B0BDE8F08F65EF010070B52A4BCE
:1048B0001D7D05F01F0301229A406909274B03EB78
:1048C0008103D043BFF35B8F53E8001F01EA00046C
:1048D00043E80046002EF7D1BFF35B8F0A4200D1B8
:1048E00070BD1F4805EB45029300C1181D4A72B107
:1048F0004978C05C15F0ECF94FF02003EFF3118616
:1049000083F31288BFF36F8F174B1C6810E00023EE
:1049100083F31188BFF36F8FEEE70F4B1B7D03EB23
:10492000430399000E4B585C90470CB1246824B1A6
:104930001CB1A268002AF0D1F7E786F31188BFF313
:104940006F8F074805EB4505AA00811800238350A7
:104950004B608B60C4E700BF10920020FC21002058
:10496000EC210020D19C0100E421002070B5044618
:10497000574B1D7D6A09BFF35B8F564B53F82230AE
:10498000BFF35B8F05F01F02134113F0010F15D029
:1049900005EB4503504A12F82330F3B1B4F1FF3F61
:1049A00031D10EF085FE4FF02003EFF3118683F333
:1049B0001288BFF36F8F494B1C6845E001462846BB
:1049C00000F0A4F80028E3D005EB4503424A02EBCF
:1049D000830307C883E80700DAE705F01F02012315
:1049E00093406D093B4A02EB8505DB43BFF35B8FC8
:1049F00055E8002F1A4045E800210029F8D1BFF3FF
:104A00005B8F002062E005EB4503334A02EB830332
:104A10009868410CC003324BC018324A4FF0000373
:104A200041F10001FCF7C8FB0121201A19F04DFDEE
:104A3000B7E7274B1B7D03EB4303274911F82300FE
:104A400090470CB1246824B11CB16268002AF0D1EF
:104A5000F7E786F31188BFF36F8F05F01F0301217D
:104A600099406B09204A02EB8303BFF35B8F53E845
:104A7000002F0A4343E800200028F8D1BFF35B8FE2
:104A80001A4B4BB1144B05EB450203EB82014978FD
:104A900013F8220015F010F9FFF708FF05F01F03C7
:104AA000012404FA03F36D090A4A02EB8505DB438E
:104AB000BFF35B8F55E8002F1A4045E8002100291D
:104AC000F8D1BFF35B8F0FF015F8204670BD00BF23
:104AD00010920020F8210020EC210020E421002089
:104AE0003F420F0040420F00FC210020B99C010012
:104AF000BFF35B8F044B53F82000BFF35B8F00388C
:104B000018BF0120704700BF002200202DE9F041AE
:104B100082B00E4601A900F043F8441E24B207E01B
:104B2000B6F1FF3F32D04044B0422FD9013C24B20D
:104B3000002C2ADB019B04EB440203EB820513F8F3
:104B40002200FFF7D5FF0028F0D16868410CC003B0
:104B5000104FC019104A4FF0000341F10001FCF75B
:104B60002BFB8046AB68590CDB03D8190A4A4FF07F
:104B7000000341F10001FCF71FFB084B1B68B3F178
:104B8000FF3FCDD08342CBD8D0E70025284602B0E6
:104B9000BDE8F0813F420F0040420F00A403002017
:104BA00008B9024B0B600020704700BF68EF01009E
:104BB000014910220A60704710ED00E072B64040D3
:104BC00080F31188BFF36F8FBFF34F8F30BF62B692
:104BD000BFF36F8F704700BF72B6494081F31188F1
:104BE00020BF80F3118862B6704700BF40B2002832
:104BF00007DB00F01F02400901239340014A42F8FD
:104C00002030704700E100E040B200280CDB00F0EB
:104C10001F024009012393402030044A42F820300B
:104C2000BFF34F8FBFF36F8F704700BF00E100E00D
:104C30004209054B53F8222000F01F00012303FA1C
:104C400000F01040704700BF00E100E0013140B2C9
:104C5000002808DB4901C9B200F1604000F561405D
:104C600080F80013704700F00F004901C9B2014BF2
:104C70001954704714ED00E008B572B6054B9B69F6
:104C80000BB962B608BD034B00229A6119F08DF88A
:104C9000F7E700BF1092002030BFFFF7FDBF00BF55
:104CA00008B50B4B0B4A22F07F029A60BFF34F8F7F
:104CB000BFF36F8FD3F8882022F47002C3F88820E6
:104CC0000DF0DAFF0FF096F800F01AFA0EF032F855
:104CD00000ED00E0000000000A4A9368C3F8AC0051
:104CE00009490968C3F8B01008494B6843F080537C
:104CF0004B60002383F31188BFF36F8F9368D3F861
:104D0000B0007047109200203800020000ED00E073
:104D100013498A684FF030001044EFF3098C80E8A3
:104D2000F01F202080F31288BFF36F8F0D4F4FF0DC
:104D30000066CA698A603E60D2F8AC000023C2F8FF
:104D4000AC3080F3118804B5104600F083FABDE85A
:104D5000044002F1300090E8F01F8CF3098870479E
:104D60001092002004ED00E01EF0040F0CBFEFF3E2
:104D70000880EFF30980816911F8021C0229FFD035
:104D800001B514F0B5FE01BD10B4A2F120040E4926
:104D900042F8081C21F0010142F8081C42F8203CAE
:104DA000019B42F81C3C029B42F8183C039B42F8D2
:104DB000143C4FF0807342F8043C04650023C0F8B3
:104DC000AC3010BC704700BF7F960100124B9A6850
:104DD00002B310F1160F11D0D2F89C30A3F1200CC1
:104DE000844505D8834205D98B4205D800210BE0C4
:104DF000002109E0002107E0012105E0D2F89C3004
:104E00008B4294BF0021012109B900207047D2F8DC
:104E10009C007047002070471092002008B50D4696
:104E20001446084B986000F015FA204685F309886F
:104E3000002163B681F31188BFF36F8F0022002336
:104E400014F01DFC1092002001B572B60B4A906957
:104E500000281EBF0021916118F0A7FF62B6EFF392
:104E60000580A0F110004FEAC0000549014409C9BE
:104E70009847BDE801400349084700001092002010
:104E8000E4E70100894E0000044B9968D869884224
:104E900003D003494FF080520A60704710920020FF
:104EA00004ED00E010B51446124B9A6A9A6A9B6AA8
:104EB00013F4007F0BD00F4B9A6B9B6A13F4004FD7
:104EC00005D021B10B4A936A23F400439362094B46
:104ED0009A6A9B6A13F4807F01D1064B9B6A054A4C
:104EE000936A43F47F439362012114F013FE207010
:104EF000002010BD00ED00E0074B9A6A9A6A9A6A9A
:104F00009A6A9A6A9A6A9A6A6FEA02426FEA124247
:104F10009A620020704700BF00ED00E070B50546C2
:104F20001646254B9A6A9A6A9B6A13F0020F0CD0B8
:104F3000214B586B9B6A13F0800F2FD039B11E4A5A
:104F4000936A23F08003936201E06FF015001A4B1F
:104F50009A6A9A6A9B6A13F0100F04D1164B9C6AE6
:104F600014F0020404D0144B5C6814F4006418D1EB
:104F7000114B9B6A13F0200F04D00F4A536A23F49D
:104F8000005353620C4A936A43F0FF03936201217A
:104F9000284614F0BFFD3070204670BD6FF015003C
:104FA000D5E72946FFF712FF04460028E0D080F33A
:104FB00009880224DCE700BF00ED00E008B5844664
:104FC00000230B701B4BD86A10F002002ED1DB6A55
:104FD000002B2CDB174BDB6A13F0804328D0DCF866
:104FE000183033F8022C4DF602739A420FD0114B51
:104FF00093F8283073B90F4B93F8293083B90D4BD0
:105000005B8D9BB29BB16046FFF776FF0FE0DCF84B
:1050100000000CE00A4601216046FFF77FFF06E032
:105020000A4601216046FFF73DFF00E0002008BD71
:105030001846FCE700ED00E030B58BB00C46264B7F
:105040005968C1F30801002383F31188BFF36F8F00
:1050500002F07F43B3F17F4F15D102F00C03082B10
:1050600014D012F0080F0BD000250DF127022046B6
:1050700014F055FD86469DF8273053B10BB030BD76
:1050800004460125F1E700252C46EEE700252C46D5
:10509000EBE70DF1040C20686168A268E368ACE8F6
:1050A0000F0020696169A269E369ACE80F0045B1AE
:1050B000C3F308025AB96FEA53236FEA43230893F4
:1050C00005E0089B23F4FF7323F00103089301A973
:1050D000704614F009FDD1E700ED00E0024A536983
:1050E00043F010035361704700ED00E0EFF30880D8
:1050F000EFF3098101B57246FFF79EFF01BD00BFC6
:10510000002206E002F00F01094B0B442021197622
:1051100001322F2A0ADC53B2002BF3DB03F1604388
:1051200003F56143202183F80013F1E7704700BFC6
:10513000FCEC00E0002080F31488BFF36F8F19F0BF
:10514000CBFA00200D490860BFF34F8F0C4880F365
:10515000088800F02DF8202080F3118809484FF4CA
:105160000261401880F30988EFF31480022108439C
:1051700080F31488BFF36F8FFFF792FD94ED00E08A
:10518000609F0020E0A00020084BD3F89000C0F3FF
:105190000720002306E0054AC2F898300021C2F833
:1051A000A01001338342F6DB704700BF00ED00E042
:1051B00010B572B6002484F31388FFF7E5FF234689
:1051C00008E003F120010E4A4FF0FF3042F82100C1
:1051D0000133DBB2072BF4D9002308E003F16001AF
:1051E000074A4FF0FF3042F821000133DBB2072BB2
:1051F000F4D962B6BFF34F8FBFF36F8F10BD00BFFE
:1052000000E100E008B50A4B9B68834202D00EF033
:10521000B5FD08BDEFF30583002BF8D0054B5A68A8
:1052200042F080525A605A6A22F400425A62EEE713
:105230001092002000ED00E008B5034B034A012165
:10524000034814F0F2FC08BD00000220000000201A
:1052500068EF010008B5D0F89C30203B044803609B
:1052600020234360034B8360012114F0E2FC08BD5E
:105270001C22002000000B15084AC2F898000B6899
:1052800023F01F03034343F01003C2F89C308B68E4
:1052900043F00103C2F8A030704700BF00ED00E00A
:1052A00010B5034C0123227814F097FC207010BD38
:1052B0009392002008B50023094A127814F08DFC5F
:1052C00010F1160F0AD0034606E0064AC2F89830DD
:1052D0000021C2F8A0100133072BF6DD08BD00BF86
:1052E0009392002000ED00E0044B0522C3F89420C7
:1052F000BFF34F8FBFF36F8F704700BF00ED00E02B
:10530000BFF35F8F024B0022C3F89420704700BFA9
:1053100000ED00E038B50E4B1D68082D15D8FFF7DD
:10532000EFFF002409E00A4B596804EB44029300A4
:1053300019442046FFF7A0FF0134A542F3D8054BDE
:105340001D70FFF7D1FF002038BD4FF0FF30FBE7A5
:105350008CEF010093920020014B1860704700BF52
:10536000AC03002070B506460D46002400E0013471
:10537000AC4208DA054B1B68984730550A2801D023
:105380000D28F4D10134204670BD00BFA8030020D1
:10539000F8B505460F46002404E0094B1B68307839
:1053A00098470134BC4208DA2E192B5D0A2BF4D140
:1053B000034B1B680D209847EFE73846F8BD00BF48
:1053C000AC03002008B505220249012014F042FC7C
:1053D000FEE700BF74EF01000246084B1968084B56
:1053E000C8180A44C3F1005303F500339A4202D2AD
:1053F000024B1A6070474FF0FF30704728220020A0
:1054000090B300204FF02003EFF3118283F3128852
:10541000BFF36F8F01230649C1F840354FF080413B
:10542000C1F8783582F31188BFF36F8F0020704781
:1054300000E00140C0B24FF08042C2F81C05BFF34B
:105440004F8F0549CA6802F4E062044B1343CB60F6
:10545000BFF34F8F00BFFDE700ED00E00400FA0549
:1054600030B108B58001034B43F00103984708BDF4
:10547000704700BFF0E9010038B50446054817F051
:10548000A7FD054620B10021083017F0C3FD2C759B
:10549000284638BDE00F002010B502460A4BD3F86D
:1054A000B80058B117F0EEFD044601230375002142
:1054B0008181083017F0AEFD204610BD0B4601205B
:1054C000FFF7DAFF0446F7E70000002010B5A0F16F
:1054D0000E0CBCF1010F06D959B90120FFF7CCFF22
:1054E0000446204610BD10461946FFF7D5FF044676
:1054F000F7E7064817F06CFD04460028F1D00021BC
:10550000083017F087FD01232375EAE7880F002094
:1055100082685178074B83F824105188D984117917
:1055200083F82510B2F807101985B2F805205A85BE
:10553000704700BF000000208268034BD2F80100D2
:10554000D2F8051003C370479000002030B584687E
:1055500004F1010C094D4134AE46DCF80000DCF8E2
:105560000410DCF80820DCF80C30AEE80F000CF179
:10557000100C7546A445EFD130BD00BF34000020AB
:105580008268034BD2F80100D2F8051003C37047BC
:105590002C0000208368197ADA7942EA012198798F
:1055A0005A7942EA002242EA01421879D97841EA5E
:1055B000002198785B7843EA002343EA01430349DA
:1055C000C1F89830C1F89C20704700BF000000204F
:1055D00008B583681B78A3B901F060F8BFF35B8F4F
:1055E000084B53F8882FBFF35B8F02F00902BFF31B
:1055F0005B8F53E8001F43E800200028F9D1BFF378
:105600005B8F08BD0000002070B506460D461446AD
:1056100090790BF07DFA394B834200D070BD204663
:1056200017F02AFC00EB4000354B03EB8000438869
:10563000B342F3D1334BD3F8B80028B117F0FCFCD8
:10564000304B0022C3F8B820204617F015FC00EBC1
:1056500040002B4B03EB8000436803B1EDB12046C3
:1056600017F00AFC00EB4000254B03EB8000836839
:10567000002BD3D0204617F0FFFB214E00EB40005B
:1056800006F82050204617F0F7FB00EB400006EB31
:105690008006B0680DF0B8FDC0E7204617F0ECFBBF
:1056A00000EB4000164B03EB8000436819685A6812
:1056B000187A02F01F060123B34070B1520901EBC2
:1056C0008202BFF35B8F52E8001F194342E80010CB
:1056D0000028F8D1BFF35B8FC1E7520901EB8202CA
:1056E000DB43BFF35B8F52E8001F194042E8001014
:1056F0000028F8D1BFF35B8FB1E700BFB40F0020E3
:105700002C2200200000002038B504460421083077
:1057100017F001FD4578224601784088FFF774FFB5
:1057200005B938BD01480DF06FFDFAE7A000002073
:1057300038B504460321083017F0EDFC0578A3685E
:1057400022461978B0F80100FFF75EFF05B938BDB1
:1057500001480DF059FDFAE7A000002010B50446FD
:105760000121083017F0D7FC00780023062B0DD854
:10577000084A02EBC30112F83320904207D1A289F4
:105780004B789A4202D34B682046984710BD0133AC
:10579000ECE700BFE0F0010038B504468389012B37
:1057A00027D9022104F1080017F0B5FC054603785B
:1057B000052B2ED02FD30E3BDBB2012B27D8012394
:1057C00013F0020F29D028780023022B0DD81B4A92
:1057D00002EBC30112F8332090422CD1A2894B78FE
:1057E0009A4202D34B6820469847204617F024FC83
:1057F00038BD40F63713124A1249134814F065F9C0
:10580000404080F311884FF0030002DFC9E7022314
:10581000D6E70323D4E70223D2E740F63B13084A36
:105820000A49094814F051F9404080F311884FF0BB
:10583000030002DFC7E70133C7E700BF28F101001B
:10584000CCEF010000F001001CF001003CF0010071
:1058500010B50C460A604B609DF808300B7217F0CB
:105860000BFB00EB4000024B03EB8000446010BDDB
:105870002C2200202DE9F84306460F464FF0FF3258
:105880004FF0FF33184817F0A3FB044600F1080956
:105890000021484617F0BEFB4FF0000884F8148042
:1058A000204617F0E9FA114D00EB400005EB8000AF
:1058B0004680204617F0E0FA00EB400005EB80033D
:1058C000C3F80880204617F0D7FA00EB400005EB3C
:1058D0008005C5F804800321484617F003FC0680C4
:1058E00087702046BDE8F883B40F00202C220020EA
:1058F00070B586B015460C4659B3012200216846A2
:1059000018F051FB204617F0B7FA00EB4000264B89
:1059100003EB8000C0F808D0204617F0B3FB014627
:10592000224817F07BFB4FF4A022002368460DF0BD
:1059300093FC0646A8B9204617F09EFA00EB4000FB
:10594000194B13F82060F6B945B32C60002006B05F
:1059500070BDFFF78FFF04460028CED16FF06800BE
:10596000F5E740F23513124A1249134814F0ADF826
:105970003146124814F0A9F8404080F311884FF0E6
:10598000030002DFD7E7204617F056FB092E02D0AE
:105990006FF00400DBE76FF06E00D8E7204617F0E9
:1059A0004BFB0020D3E700BF2C220020BC000020CE
:1059B000CCEF01006CF001001CF0010078F0010058
:1059C00010B582B0224BD3F8D4309B6813F0010F8E
:1059D0000DD101AA002140F60340FFF789FF0446DC
:1059E00068B90198FFF7F4FD019817F025FB01AAAB
:1059F000002141F20300FFF77BFF044610B120466F
:105A000002B010BD0198FFF7BBFD019817F014FB21
:105A100001AA002141F20100FFF76AFF04460028B5
:105A2000EDD10198FFF774FD019817F005FB01AA6D
:105A3000002141F20200FFF75BFF04460028DED19F
:105A40000198FFF783FD019817F0F6FAD7E700BF3A
:105A500000000020324B93F8303013F0400F58D044
:105A600010B582B001AA002142F20300FFF740FF07
:105A7000034610B1184602B010BD0198FFF75CFD57
:105A8000019817F0D9FA264B93F8303013F0200F15
:105A900017D0234B93F8503013F0080F29D1204B27
:105AA00093F8923013F0180F02D113F0800F04D046
:105AB00001F058FB03460028DCD114F078F90346C6
:105AC000D8E7022140F66D40FFF7D4FE044620B32C
:105AD0000221083017F006FB0123037000224270F8
